{
  "contractName": "CreditorContract",
  "abi": [
    {
      "inputs": [
        {
          "internalType": "address",
          "name": "lender_",
          "type": "address"
        },
        {
          "internalType": "address",
          "name": "token1",
          "type": "address"
        },
        {
          "internalType": "address",
          "name": "token2",
          "type": "address"
        },
        {
          "internalType": "address",
          "name": "token3",
          "type": "address"
        },
        {
          "internalType": "address",
          "name": "token4",
          "type": "address"
        }
      ],
      "stateMutability": "nonpayable",
      "type": "constructor"
    },
    {
      "anonymous": false,
      "inputs": [
        {
          "indexed": true,
          "internalType": "address",
          "name": "borrower",
          "type": "address"
        },
        {
          "indexed": false,
          "internalType": "uint256",
          "name": "remainingDebt",
          "type": "uint256"
        }
      ],
      "name": "LoanPayment",
      "type": "event"
    },
    {
      "inputs": [
        {
          "internalType": "int128",
          "name": "secondsNumber",
          "type": "int128"
        },
        {
          "internalType": "uint256",
          "name": "loan",
          "type": "uint256"
        },
        {
          "internalType": "uint256",
          "name": "currencyType",
          "type": "uint256"
        }
      ],
      "name": "calcDeposit",
      "outputs": [
        {
          "internalType": "uint256",
          "name": "",
          "type": "uint256"
        }
      ],
      "stateMutability": "view",
      "type": "function",
      "constant": true
    },
    {
      "inputs": [
        {
          "internalType": "int128",
          "name": "secondsNumber",
          "type": "int128"
        },
        {
          "internalType": "uint256",
          "name": "loan",
          "type": "uint256"
        },
        {
          "internalType": "uint256",
          "name": "currencyType",
          "type": "uint256"
        }
      ],
      "name": "loanRequest",
      "outputs": [],
      "stateMutability": "payable",
      "type": "function",
      "payable": true
    },
    {
      "inputs": [],
      "name": "loanPayment",
      "outputs": [],
      "stateMutability": "payable",
      "type": "function",
      "payable": true
    },
    {
      "inputs": [],
      "name": "getLoanInfo",
      "outputs": [
        {
          "components": [
            {
              "internalType": "uint256",
              "name": "loan",
              "type": "uint256"
            },
            {
              "internalType": "uint256",
              "name": "debtLeft",
              "type": "uint256"
            },
            {
              "internalType": "uint256",
              "name": "endTime",
              "type": "uint256"
            }
          ],
          "internalType": "struct CreditorContract.Borrower",
          "name": "",
          "type": "tuple"
        }
      ],
      "stateMutability": "view",
      "type": "function",
      "constant": true
    },
    {
      "inputs": [],
      "name": "checkRegistration",
      "outputs": [
        {
          "internalType": "bool",
          "name": "",
          "type": "bool"
        }
      ],
      "stateMutability": "view",
      "type": "function",
      "constant": true
    }
  ],
  "bytecode": "0x608060405234801561000f575f5ffd5b50604051611dfe380380611dfe833981810160405281019061003191906105b7565b845f5f6101000a81548173ffffffffffffffffffffffffffffffffffffffff021916908373ffffffffffffffffffffffffffffffffffffffff1602179055508360045f6101000a81548173ffffffffffffffffffffffffffffffffffffffff021916908373ffffffffffffffffffffffffffffffffffffffff1602179055508260055f6101000a81548173ffffffffffffffffffffffffffffffffffffffff021916908373ffffffffffffffffffffffffffffffffffffffff1602179055508160075f6101000a81548173ffffffffffffffffffffffffffffffffffffffff021916908373ffffffffffffffffffffffffffffffffffffffff1602179055508060065f6101000a81548173ffffffffffffffffffffffffffffffffffffffff021916908373ffffffffffffffffffffffffffffffffffffffff16021790555060045f9054906101000a900473ffffffffffffffffffffffffffffffffffffffff1660035f5f81526020019081526020015f205f6101000a81548173ffffffffffffffffffffffffffffffffffffffff021916908373ffffffffffffffffffffffffffffffffffffffff16021790555060055f9054906101000a900473ffffffffffffffffffffffffffffffffffffffff1660035f600181526020019081526020015f205f6101000a81548173ffffffffffffffffffffffffffffffffffffffff021916908373ffffffffffffffffffffffffffffffffffffffff16021790555060075f9054906101000a900473ffffffffffffffffffffffffffffffffffffffff1660035f600281526020019081526020015f205f6101000a81548173ffffffffffffffffffffffffffffffffffffffff021916908373ffffffffffffffffffffffffffffffffffffffff16021790555060065f9054906101000a900473ffffffffffffffffffffffffffffffffffffffff1660035f600381526020019081526020015f205f6101000a81548173ffffffffffffffffffffffffffffffffffffffff021916908373ffffffffffffffffffffffffffffffffffffffff16021790555060045f9054906101000a900473ffffffffffffffffffffffffffffffffffffffff1673ffffffffffffffffffffffffffffffffffffffff166307a0c585306040518263ffffffff1660e01b815260040161038d919061063d565b5f604051808303815f87803b1580156103a4575f5ffd5b505af11580156103b6573d5f5f3e3d5ffd5b5050505060055f9054906101000a900473ffffffffffffffffffffffffffffffffffffffff1673ffffffffffffffffffffffffffffffffffffffff166307a0c585306040518263ffffffff1660e01b8152600401610414919061063d565b5f604051808303815f87803b15801561042b575f5ffd5b505af115801561043d573d5f5f3e3d5ffd5b5050505060075f9054906101000a900473ffffffffffffffffffffffffffffffffffffffff1673ffffffffffffffffffffffffffffffffffffffff166307a0c585306040518263ffffffff1660e01b815260040161049b919061063d565b5f604051808303815f87803b1580156104b2575f5ffd5b505af11580156104c4573d5f5f3e3d5ffd5b5050505060065f9054906101000a900473ffffffffffffffffffffffffffffffffffffffff1673ffffffffffffffffffffffffffffffffffffffff166307a0c585306040518263ffffffff1660e01b8152600401610522919061063d565b5f604051808303815f87803b158015610539575f5ffd5b505af115801561054b573d5f5f3e3d5ffd5b505050505050505050610656565b5f5ffd5b5f73ffffffffffffffffffffffffffffffffffffffff82169050919050565b5f6105868261055d565b9050919050565b6105968161057c565b81146105a0575f5ffd5b50565b5f815190506105b18161058d565b92915050565b5f5f5f5f5f60a086880312156105d0576105cf610559565b5b5f6105dd888289016105a3565b95505060206105ee888289016105a3565b94505060406105ff888289016105a3565b9350506060610610888289016105a3565b9250506080610621888289016105a3565b9150509295509295909350565b6106378161057c565b82525050565b5f6020820190506106505f83018461062e565b92915050565b61179b806106635f395ff3fe608060405260043610610049575f3560e01c8063518ec1471461004d5780635d3e2fa1146100895780635f1c55ad146100b357806364109155146100cf578063fd1b2100146100d9575b5f5ffd5b348015610058575f5ffd5b50610073600480360381019061006e91906110cb565b610103565b604051610080919061112a565b60405180910390f35b348015610094575f5ffd5b5061009d61018c565b6040516100aa9190611192565b60405180910390f35b6100cd60048036038101906100c891906110cb565b61028e565b005b6100d761065b565b005b3480156100e4575f5ffd5b506100ed610941565b6040516100fa91906111c5565b60405180910390f35b5f5f84600f0b13801561011d5750630b3f4c0084600f0b13155b80156101295750600482105b610131575f5ffd5b670de0b6b3a764000061014383610991565b61016561016061015288610c0e565b61015b88610c7a565b610c9b565b610d04565b67ffffffffffffffff16610179919061120b565b6101839190611279565b90509392505050565b610194611040565b6001151560025f3373ffffffffffffffffffffffffffffffffffffffff1673ffffffffffffffffffffffffffffffffffffffff1681526020019081526020015f205f9054906101000a900460ff16151514610224576040517f08c379a000000000000000000000000000000000000000000000000000000000815260040161021b90611303565b60405180910390fd5b60015f3373ffffffffffffffffffffffffffffffffffffffff1673ffffffffffffffffffffffffffffffffffffffff1681526020019081526020015f206040518060600160405290815f820154815260200160018201548152602001600282015481525050905090565b5f151560025f3373ffffffffffffffffffffffffffffffffffffffff1673ffffffffffffffffffffffffffffffffffffffff1681526020019081526020015f205f9054906101000a900460ff1615151461031d576040517f08c379a00000000000000000000000000000000000000000000000000000000081526004016103149061136b565b60405180910390fd5b8160035f8381526020019081526020015f205f9054906101000a900473ffffffffffffffffffffffffffffffffffffffff1673ffffffffffffffffffffffffffffffffffffffff166370a08231306040518263ffffffff1660e01b815260040161038791906113c8565b602060405180830381865afa1580156103a2573d5f5f3e3d5ffd5b505050506040513d601f19601f820116820180604052508101906103c691906113f5565b1015610407576040517f08c379a00000000000000000000000000000000000000000000000000000000081526004016103fe9061146a565b60405180910390fd5b5f83600f0b1380156104205750630b3f4c0083600f0b13155b801561042c5750600481105b61046b576040517f08c379a0000000000000000000000000000000000000000000000000000000008152600401610462906114d2565b60405180910390fd5b610476838383610103565b34146104b7576040517f08c379a00000000000000000000000000000000000000000000000000000000081526004016104ae9061153a565b60405180910390fd5b600160025f3373ffffffffffffffffffffffffffffffffffffffff1673ffffffffffffffffffffffffffffffffffffffff1681526020019081526020015f205f6101000a81548160ff0219169083151502179055506040518060600160405280838152602001610528858585610103565b815260200161053685610d04565b67ffffffffffffffff164261054b9190611558565b81525060015f3373ffffffffffffffffffffffffffffffffffffffff1673ffffffffffffffffffffffffffffffffffffffff1681526020019081526020015f205f820151815f0155602082015181600101556040820151816002015590505060035f8281526020019081526020015f205f9054906101000a900473ffffffffffffffffffffffffffffffffffffffff1673ffffffffffffffffffffffffffffffffffffffff1663a9059cbb33846040518363ffffffff1660e01b815260040161061592919061158b565b6020604051808303815f875af1158015610631573d5f5f3e3d5ffd5b505050506040513d601f19601f8201168201806040525081019061065591906115dc565b50505050565b60025f3373ffffffffffffffffffffffffffffffffffffffff1673ffffffffffffffffffffffffffffffffffffffff1681526020019081526020015f205f9054906101000a900460ff166106e4576040517f08c379a00000000000000000000000000000000000000000000000000000000081526004016106db90611651565b60405180910390fd5b4260015f3373ffffffffffffffffffffffffffffffffffffffff1673ffffffffffffffffffffffffffffffffffffffff1681526020019081526020015f20600201541015610730575f5ffd5b60015f3373ffffffffffffffffffffffffffffffffffffffff1673ffffffffffffffffffffffffffffffffffffffff1681526020019081526020015f20600101543411156107b3576040517f08c379a00000000000000000000000000000000000000000000000000000000081526004016107aa906116b9565b60405180910390fd5b3460015f3373ffffffffffffffffffffffffffffffffffffffff1673ffffffffffffffffffffffffffffffffffffffff1681526020019081526020015f206001015f82825461080291906116d7565b925050819055505f60015f3373ffffffffffffffffffffffffffffffffffffffff1673ffffffffffffffffffffffffffffffffffffffff1681526020019081526020015f20600101540361093f5760015f3373ffffffffffffffffffffffffffffffffffffffff1673ffffffffffffffffffffffffffffffffffffffff1681526020019081526020015f205f5f82015f9055600182015f9055600282015f9055505060025f3373ffffffffffffffffffffffffffffffffffffffff1673ffffffffffffffffffffffffffffffffffffffff1681526020019081526020015f205f6101000a81549060ff02191690553373ffffffffffffffffffffffffffffffffffffffff167feb7c26fe56b2a64244feba0eedfdebc4d422a2d05688a3a7cab93c91382d4ab35f604051610936919061174c565b60405180910390a25b565b5f60025f3373ffffffffffffffffffffffffffffffffffffffff1673ffffffffffffffffffffffffffffffffffffffff1681526020019081526020015f205f9054906101000a900460ff16905090565b5f5f5f8303610a2f5760045f9054906101000a900473ffffffffffffffffffffffffffffffffffffffff1673ffffffffffffffffffffffffffffffffffffffff16636945c1fd6040518163ffffffff1660e01b8152600401602060405180830381865afa158015610a04573d5f5f3e3d5ffd5b505050506040513d601f19601f82011682018060405250810190610a2891906113f5565b9050610c05565b60018303610acc5760055f9054906101000a900473ffffffffffffffffffffffffffffffffffffffff1673ffffffffffffffffffffffffffffffffffffffff16636945c1fd6040518163ffffffff1660e01b8152600401602060405180830381865afa158015610aa1573d5f5f3e3d5ffd5b505050506040513d601f19601f82011682018060405250810190610ac591906113f5565b9050610c04565b60028303610b695760075f9054906101000a900473ffffffffffffffffffffffffffffffffffffffff1673ffffffffffffffffffffffffffffffffffffffff16636945c1fd6040518163ffffffff1660e01b8152600401602060405180830381865afa158015610b3e573d5f5f3e3d5ffd5b505050506040513d601f19601f82011682018060405250810190610b6291906113f5565b9050610c03565b60038303610c025760065f9054906101000a900473ffffffffffffffffffffffffffffffffffffffff1673ffffffffffffffffffffffffffffffffffffffff16636945c1fd6040518163ffffffff1660e01b8152600401602060405180830381865afa158015610bdb573d5f5f3e3d5ffd5b505050506040513d601f19601f82011682018060405250810190610bff91906113f5565b90505b5b5b5b80915050919050565b5f62093a8082600f0b1215610c3057610c2960906064610d23565b9050610c75565b5f610c63610c5c610c57610c4686600f0b610da8565b610c5262093a80610c7a565b610d23565b610df5565b6001610e1c565b9050610c6e81610e81565b60070b9150505b919050565b5f677fffffffffffffff821115610c8f575f5ffd5b604082901b9050919050565b5f5f604083600f0b85600f0b02901d90507fffffffffffffffffffffffffffffffff80000000000000000000000000000000600f0b8112158015610cf257506f7fffffffffffffffffffffffffffffff600f0b8113155b610cfa575f5ffd5b8091505092915050565b5f5f82600f0b1215610d14575f5ffd5b604082600f0b901d9050919050565b5f5f82600f0b03610d32575f5ffd5b5f82600f0b604085600f0b901b81610d4d57610d4c61124c565b5b0590507fffffffffffffffffffffffffffffffff80000000000000000000000000000000600f0b8112158015610d9657506f7fffffffffffffffffffffffffffffff600f0b8113155b610d9e575f5ffd5b8091505092915050565b5f7fffffffffffffffffffffffffffffffffffffffffffffffff80000000000000008212158015610de15750677fffffffffffffff8213155b610de9575f5ffd5b604082901b9050919050565b5f5f82600f0b1215610e05575f5ffd5b610e15604083600f0b901b610e91565b9050919050565b5f5f82600f0b84600f0b0190507fffffffffffffffffffffffffffffffff80000000000000000000000000000000600f0b8112158015610e6f57506f7fffffffffffffffffffffffffffffff600f0b8113155b610e77575f5ffd5b8091505092915050565b5f604082600f0b901d9050919050565b5f5f8203610ea1575f905061103b565b5f8290505f600190507001000000000000000000000000000000008210610ed157608082901c9150604081901b90505b680100000000000000008210610ef057604082901c9150602081901b90505b6401000000008210610f0b57602082901c9150601081901b90505b620100008210610f2457601082901c9150600881901b90505b6101008210610f3c57600882901c9150600481901b90505b60108210610f5357600482901c9150600281901b90505b60048210610f6357600181901b90505b6001818581610f7557610f7461124c565b5b048201901c90506001818581610f8e57610f8d61124c565b5b048201901c90506001818581610fa757610fa661124c565b5b048201901c90506001818581610fc057610fbf61124c565b5b048201901c90506001818581610fd957610fd861124c565b5b048201901c90506001818581610ff257610ff161124c565b5b048201901c9050600181858161100b5761100a61124c565b5b048201901c90505f8185816110235761102261124c565b5b0490508082106110335780611035565b815b93505050505b919050565b60405180606001604052805f81526020015f81526020015f81525090565b5f5ffd5b5f81600f0b9050919050565b61107781611062565b8114611081575f5ffd5b50565b5f813590506110928161106e565b92915050565b5f819050919050565b6110aa81611098565b81146110b4575f5ffd5b50565b5f813590506110c5816110a1565b92915050565b5f5f5f606084860312156110e2576110e161105e565b5b5f6110ef86828701611084565b9350506020611100868287016110b7565b9250506040611111868287016110b7565b9150509250925092565b61112481611098565b82525050565b5f60208201905061113d5f83018461111b565b92915050565b61114c81611098565b82525050565b606082015f8201516111665f850182611143565b5060208201516111796020850182611143565b50604082015161118c6040850182611143565b50505050565b5f6060820190506111a55f830184611152565b92915050565b5f8115159050919050565b6111bf816111ab565b82525050565b5f6020820190506111d85f8301846111b6565b92915050565b7f4e487b71000000000000000000000000000000000000000000000000000000005f52601160045260245ffd5b5f61121582611098565b915061122083611098565b925082820261122e81611098565b91508282048414831517611245576112446111de565b5b5092915050565b7f4e487b71000000000000000000000000000000000000000000000000000000005f52601260045260245ffd5b5f61128382611098565b915061128e83611098565b92508261129e5761129d61124c565b5b828204905092915050565b5f82825260208201905092915050565b7f596f7520617265206e6f742072656769737472656400000000000000000000005f82015250565b5f6112ed6015836112a9565b91506112f8826112b9565b602082019050919050565b5f6020820190508181035f83015261131a816112e1565b9050919050565b7f596f7520616c726561647920686176652061206c6f616e0000000000000000005f82015250565b5f6113556017836112a9565b915061136082611321565b602082019050919050565b5f6020820190508181035f83015261138281611349565b9050919050565b5f73ffffffffffffffffffffffffffffffffffffffff82169050919050565b5f6113b282611389565b9050919050565b6113c2816113a8565b82525050565b5f6020820190506113db5f8301846113b9565b92915050565b5f815190506113ef816110a1565b92915050565b5f6020828403121561140a5761140961105e565b5b5f611417848285016113e1565b91505092915050565b7f546f6f2068696768206c6f616e20746f207265717565737400000000000000005f82015250565b5f6114546018836112a9565b915061145f82611420565b602082019050919050565b5f6020820190508181035f83015261148181611448565b9050919050565b7f496e636f727265637420617267756d656e7473000000000000000000000000005f82015250565b5f6114bc6013836112a9565b91506114c782611488565b602082019050919050565b5f6020820190508181035f8301526114e9816114b0565b9050919050565b7f4d7573742073656e6420617070726f7072696174652045544820616d6f756e745f82015250565b5f6115246020836112a9565b915061152f826114f0565b602082019050919050565b5f6020820190508181035f83015261155181611518565b9050919050565b5f61156282611098565b915061156d83611098565b9250828201905080821115611585576115846111de565b5b92915050565b5f60408201905061159e5f8301856113b9565b6115ab602083018461111b565b9392505050565b6115bb816111ab565b81146115c5575f5ffd5b50565b5f815190506115d6816115b2565b92915050565b5f602082840312156115f1576115f061105e565b5b5f6115fe848285016115c8565b91505092915050565b7f596f7520617265206e6f742072656769737472656421000000000000000000005f82015250565b5f61163b6016836112a9565b915061164682611607565b602082019050919050565b5f6020820190508181035f8301526116688161162f565b9050919050565b7f596f7572207061796d656e7420686967686572207468656e20646562742100005f82015250565b5f6116a3601e836112a9565b91506116ae8261166f565b602082019050919050565b5f6020820190508181035f8301526116d081611697565b9050919050565b5f6116e182611098565b91506116ec83611098565b9250828203905081811115611704576117036111de565b5b92915050565b5f819050919050565b5f819050919050565b5f61173661173161172c8461170a565b611713565b611098565b9050919050565b6117468161171c565b82525050565b5f60208201905061175f5f83018461173d565b9291505056fea2646970667358221220ce99a4a31bb5d59bef854c22fb7128bb5a32e4623bc767a572bed2a68232757764736f6c634300081c0033",
  "immutableReferences": {},
  "source": "// SPDX-License-Identifier: MIT\npragma solidity ^0.8.0;\n\n//  (Bitcoin, BTC)\n//  (Ethereum, ETH)\n//  (XRP)\n//  (Tether, USDT)\n//   (Binance Coin, BNB)\n\nimport \"../ABDKMath64x64.sol\";\nimport \"./TokenContracts.sol\";\n\ncontract CreditorContract {\n    using ABDKMath64x64 for int128;\n\n    struct Borrower {\n        uint256 loan;\n        uint256 debtLeft;\n        uint256 endTime;\n    }\n\n    event LoanPayment(address indexed borrower, uint256 remainingDebt);\n\n    address private lender;\n    mapping(address => Borrower) private borrowers;\n    mapping(address => bool) private isRegistered;\n    mapping(uint => ERC20) private tokens;\n    Bitcoin private BTCtoken;\n    XRP private XRPtoken;\n    BinanceCoin private BNBtoken;\n    Tether private USDTtoken;\n\n    modifier onlyBorrower() {\n        require(isRegistered[msg.sender], \"You are not registred!\");\n        _;\n    }\n\n    constructor(address lender_, address token1, address token2, address token3, address token4) {\n        lender = lender_;\n        BTCtoken = Bitcoin(token1);\n        XRPtoken = XRP(token2);\n        USDTtoken = Tether(token3);\n        BNBtoken = BinanceCoin(token4);\n        tokens[0] = BTCtoken;\n        tokens[1] = XRPtoken;\n        tokens[2] = USDTtoken;\n        tokens[3] = BNBtoken;\n        BTCtoken.mintToCreator(address(this));\n        XRPtoken.mintToCreator(address(this));\n        USDTtoken.mintToCreator(address(this));\n        BNBtoken.mintToCreator(address(this));\n    }\n\n    function calculateLoanRatio(int128 secondsNumber) private pure returns(int128) {\n        if (secondsNumber < 604800) \n            return ABDKMath64x64.div(144, 100);\n        int128 ratio = ABDKMath64x64.\n            add(ABDKMath64x64.\n                sqrt(ABDKMath64x64.\n                    div(ABDKMath64x64.fromInt(secondsNumber), ABDKMath64x64.fromUInt(604800))), 1);\n        return ABDKMath64x64.toInt(ratio);\n    }\n\n    function getCurrencyDiff(uint currencyType) private view returns(uint256) {\n        uint256 currencyDiff;\n        if (currencyType == 0) {\n            currencyDiff = BTCtoken.getCurrency();\n        } else if (currencyType == 1) {\n            currencyDiff = XRPtoken.getCurrency();\n        } else if (currencyType == 2) {\n            currencyDiff = USDTtoken.getCurrency();\n        } else if (currencyType == 3) {\n            currencyDiff = BNBtoken.getCurrency();\n        }\n        return currencyDiff;\n    }\n\n    // returns amount of money deposit is required\n    function calcDeposit(int128 secondsNumber, uint256 loan, uint currencyType) public view returns(uint256) {\n        require(secondsNumber > 0 && secondsNumber <= 312 * 604800 && currencyType < 4);\n        return ABDKMath64x64.toUInt(\n            ABDKMath64x64.mul(\n                calculateLoanRatio(secondsNumber),\n                    ABDKMath64x64.fromUInt(loan))) * getCurrencyDiff(currencyType) / 1e18;\n    }\n\n    function loanRequest(int128 secondsNumber, uint256 loan, uint currencyType) public payable {\n        require(isRegistered[msg.sender] == false, \"You already have a loan\");\n        require(tokens[currencyType].balanceOf(address(this)) >= loan, \"Too high loan to request\");\n        require(secondsNumber > 0 && secondsNumber <= 312 * 604800 && currencyType < 4, \"Incorrect arguments\");\n        require(msg.value == calcDeposit(secondsNumber, loan, currencyType), \"Must send appropriate ETH amount\");\n\n        isRegistered[msg.sender] = true;\n        borrowers[msg.sender] = Borrower({\n            loan: loan,\n            debtLeft: calcDeposit(secondsNumber, loan, currencyType),\n            endTime: block.timestamp + ABDKMath64x64.toUInt(secondsNumber)\n        });\n\n        tokens[currencyType].transfer(msg.sender, loan);\n    }\n\n    // returns debtLeft value for borrower\n    function loanPayment() public onlyBorrower payable {\n        require(borrowers[msg.sender].endTime >= block.timestamp);\n        require(msg.value <= borrowers[msg.sender].debtLeft, \"Your payment higher then debt!\");\n\n        borrowers[msg.sender].debtLeft -= msg.value;\n\n        if (borrowers[msg.sender].debtLeft == 0) {\n            delete borrowers[msg.sender];\n            delete isRegistered[msg.sender];\n            emit LoanPayment(msg.sender, 0);\n        }\n    }\n\n    function getLoanInfo() public view returns(Borrower memory) {\n        require(isRegistered[msg.sender] == true, \"You are not registred\");\n        return borrowers[msg.sender];\n    }\n\n    function checkRegistration() public view returns(bool) {\n        return isRegistered[msg.sender];\n    }\n}\n",
  "sourcePath": "/home/nikita/proga/smart-contract/smart-contracts-development-lolol101/contracts/CreditorContract.sol",
  "compiler": {
    "name": "solc",
    "version": "0.8.28+commit.7893614a.Emscripten.clang"
  },
  "schemaVersion": "3.4.16",
  "updatedAt": "2024-12-23T19:55:05.809Z",
  "networkType": "ethereum",
  "devdoc": {
    "kind": "dev",
    "methods": {},
    "version": 1
  },
  "userdoc": {
    "kind": "user",
    "methods": {},
    "version": 1
  }
}